{
  "contractName": "FifaWorldCup",
  "abi": [
    {
      "constant": false,
      "inputs": [],
      "name": "renounceOwnership",
      "outputs": [],
      "payable": false,
      "stateMutability": "nonpayable",
      "type": "function"
    },
    {
      "constant": true,
      "inputs": [],
      "name": "owner",
      "outputs": [
        {
          "name": "",
          "type": "address"
        }
      ],
      "payable": false,
      "stateMutability": "view",
      "type": "function"
    },
    {
      "constant": false,
      "inputs": [
        {
          "name": "newOwner",
          "type": "address"
        }
      ],
      "name": "transferOwnership",
      "outputs": [],
      "payable": false,
      "stateMutability": "nonpayable",
      "type": "function"
    },
    {
      "inputs": [],
      "payable": false,
      "stateMutability": "nonpayable",
      "type": "constructor"
    },
    {
      "anonymous": false,
      "inputs": [
        {
          "indexed": true,
          "name": "_from",
          "type": "address"
        },
        {
          "indexed": false,
          "name": "_gameId",
          "type": "uint16"
        },
        {
          "indexed": false,
          "name": "_direction",
          "type": "uint8"
        },
        {
          "indexed": false,
          "name": "_value",
          "type": "uint256"
        }
      ],
      "name": "Deposit",
      "type": "event"
    },
    {
      "anonymous": false,
      "inputs": [
        {
          "indexed": true,
          "name": "previousOwner",
          "type": "address"
        }
      ],
      "name": "OwnershipRenounced",
      "type": "event"
    },
    {
      "anonymous": false,
      "inputs": [
        {
          "indexed": true,
          "name": "previousOwner",
          "type": "address"
        },
        {
          "indexed": true,
          "name": "newOwner",
          "type": "address"
        }
      ],
      "name": "OwnershipTransferred",
      "type": "event"
    },
    {
      "constant": false,
      "inputs": [
        {
          "name": "_delay",
          "type": "uint256"
        }
      ],
      "name": "setDelay",
      "outputs": [],
      "payable": false,
      "stateMutability": "nonpayable",
      "type": "function"
    },
    {
      "constant": true,
      "inputs": [
        {
          "name": "_gameId",
          "type": "uint16"
        }
      ],
      "name": "canVote",
      "outputs": [
        {
          "name": "",
          "type": "bool"
        }
      ],
      "payable": false,
      "stateMutability": "view",
      "type": "function"
    },
    {
      "constant": false,
      "inputs": [
        {
          "name": "_gameId",
          "type": "uint16"
        },
        {
          "name": "_canVote",
          "type": "bool"
        }
      ],
      "name": "setCanVote",
      "outputs": [],
      "payable": false,
      "stateMutability": "nonpayable",
      "type": "function"
    },
    {
      "constant": true,
      "inputs": [],
      "name": "getGameCount",
      "outputs": [
        {
          "name": "",
          "type": "uint16"
        }
      ],
      "payable": false,
      "stateMutability": "view",
      "type": "function"
    },
    {
      "constant": true,
      "inputs": [
        {
          "name": "_gameId",
          "type": "uint16"
        }
      ],
      "name": "getTeamA",
      "outputs": [
        {
          "name": "",
          "type": "string"
        }
      ],
      "payable": false,
      "stateMutability": "view",
      "type": "function"
    },
    {
      "constant": true,
      "inputs": [
        {
          "name": "_gameId",
          "type": "uint16"
        }
      ],
      "name": "getTeamB",
      "outputs": [
        {
          "name": "",
          "type": "string"
        }
      ],
      "payable": false,
      "stateMutability": "view",
      "type": "function"
    },
    {
      "constant": true,
      "inputs": [
        {
          "name": "_gameId",
          "type": "uint16"
        }
      ],
      "name": "getStartTime",
      "outputs": [
        {
          "name": "",
          "type": "uint256"
        }
      ],
      "payable": false,
      "stateMutability": "view",
      "type": "function"
    },
    {
      "constant": false,
      "inputs": [
        {
          "name": "_gameId",
          "type": "uint16"
        },
        {
          "name": "_startTime",
          "type": "uint256"
        }
      ],
      "name": "setStartTime",
      "outputs": [],
      "payable": false,
      "stateMutability": "nonpayable",
      "type": "function"
    },
    {
      "constant": true,
      "inputs": [
        {
          "name": "_gameId",
          "type": "uint16"
        }
      ],
      "name": "getWinVote",
      "outputs": [
        {
          "name": "",
          "type": "uint256"
        }
      ],
      "payable": false,
      "stateMutability": "view",
      "type": "function"
    },
    {
      "constant": true,
      "inputs": [
        {
          "name": "_gameId",
          "type": "uint16"
        }
      ],
      "name": "getDrawVote",
      "outputs": [
        {
          "name": "",
          "type": "uint256"
        }
      ],
      "payable": false,
      "stateMutability": "view",
      "type": "function"
    },
    {
      "constant": true,
      "inputs": [
        {
          "name": "_gameId",
          "type": "uint16"
        }
      ],
      "name": "getLoseVote",
      "outputs": [
        {
          "name": "",
          "type": "uint256"
        }
      ],
      "payable": false,
      "stateMutability": "view",
      "type": "function"
    },
    {
      "constant": false,
      "inputs": [
        {
          "name": "_gameId",
          "type": "uint16"
        },
        {
          "name": "_result",
          "type": "uint8"
        }
      ],
      "name": "setResult",
      "outputs": [],
      "payable": false,
      "stateMutability": "nonpayable",
      "type": "function"
    },
    {
      "constant": true,
      "inputs": [],
      "name": "getResearchPot",
      "outputs": [
        {
          "name": "",
          "type": "uint256"
        }
      ],
      "payable": false,
      "stateMutability": "view",
      "type": "function"
    },
    {
      "constant": false,
      "inputs": [
        {
          "name": "_teamA",
          "type": "string"
        },
        {
          "name": "_teamB",
          "type": "string"
        },
        {
          "name": "_startTime",
          "type": "uint256"
        }
      ],
      "name": "addGame",
      "outputs": [],
      "payable": false,
      "stateMutability": "nonpayable",
      "type": "function"
    },
    {
      "constant": false,
      "inputs": [
        {
          "name": "_gameId",
          "type": "uint16"
        },
        {
          "name": "_direction",
          "type": "uint8"
        }
      ],
      "name": "castVote",
      "outputs": [],
      "payable": true,
      "stateMutability": "payable",
      "type": "function"
    },
    {
      "constant": true,
      "inputs": [
        {
          "name": "_gameId",
          "type": "uint16"
        },
        {
          "name": "_voter",
          "type": "address"
        }
      ],
      "name": "getDeposit",
      "outputs": [
        {
          "name": "",
          "type": "uint256"
        }
      ],
      "payable": false,
      "stateMutability": "view",
      "type": "function"
    },
    {
      "constant": true,
      "inputs": [
        {
          "name": "_gameId",
          "type": "uint16"
        },
        {
          "name": "_voter",
          "type": "address"
        }
      ],
      "name": "getVote",
      "outputs": [
        {
          "name": "",
          "type": "uint8"
        }
      ],
      "payable": false,
      "stateMutability": "view",
      "type": "function"
    },
    {
      "constant": true,
      "inputs": [
        {
          "name": "_gameId",
          "type": "uint16"
        },
        {
          "name": "_voter",
          "type": "address"
        }
      ],
      "name": "getWinning",
      "outputs": [
        {
          "name": "",
          "type": "uint256"
        }
      ],
      "payable": false,
      "stateMutability": "view",
      "type": "function"
    },
    {
      "constant": false,
      "inputs": [
        {
          "name": "_gameId",
          "type": "uint16"
        }
      ],
      "name": "withdraw",
      "outputs": [
        {
          "name": "",
          "type": "uint256"
        }
      ],
      "payable": false,
      "stateMutability": "nonpayable",
      "type": "function"
    },
    {
      "constant": true,
      "inputs": [
        {
          "name": "_gameId",
          "type": "uint16"
        }
      ],
      "name": "canWithDraw",
      "outputs": [
        {
          "name": "",
          "type": "bool"
        }
      ],
      "payable": false,
      "stateMutability": "view",
      "type": "function"
    },
    {
      "constant": false,
      "inputs": [
        {
          "name": "amount",
          "type": "uint256"
        }
      ],
      "name": "getPaid",
      "outputs": [],
      "payable": false,
      "stateMutability": "nonpayable",
      "type": "function"
    }
  ],
  "bytecode": "0x6080604052600060035534801561001557600080fd5b50336000806101000a81548173ffffffffffffffffffffffffffffffffffffffff021916908373ffffffffffffffffffffffffffffffffffffffff160217905550611c42806100656000396000f30060806040526004361061013e576000357c0100000000000000000000000000000000000000000000000000000000900463ffffffff168063118efafa146101435780632a92362c146101805780632d9c0935146101ad57806338b68adf146102575780633907567d1461029c5780633d972839146102e1578063487a1df1146103265780634c83e1f214610391578063715018a61461043b578063759cf16b14610452578063852c6413146104975780638b6c2857146104d25780638da5cb5b14610537578063a5c86b771461058e578063ae1dccff14610647578063afca85fd14610672578063b0ed7af7146106bb578063b65221c314610704578063d84820d014610769578063e177246e1461079a578063e5db097a146107c7578063e87c0ee61461080c578063f121e8591461083f578063f2fde38b1461087d575b600080fd5b34801561014f57600080fd5b5061017e600480360381019080803561ffff1690602001909291908035151590602001909291905050506108c0565b005b34801561018c57600080fd5b506101ab60048036038101908080359060200190929190505050610955565b005b3480156101b957600080fd5b506101dc600480360381019080803561ffff169060200190929190505050610a15565b6040518080602001828103825283818151815260200191508051906020019080838360005b8381101561021c578082015181840152602081019050610201565b50505050905090810190601f1680156102495780820380516001836020036101000a031916815260200191505b509250505060405180910390f35b34801561026357600080fd5b50610286600480360381019080803561ffff169060200190929190505050610ad5565b6040518082815260200191505060405180910390f35b3480156102a857600080fd5b506102cb600480360381019080803561ffff169060200190929190505050610afd565b6040518082815260200191505060405180910390f35b3480156102ed57600080fd5b50610310600480360381019080803561ffff169060200190929190505050610b25565b6040518082815260200191505060405180910390f35b34801561033257600080fd5b50610375600480360381019080803561ffff169060200190929190803573ffffffffffffffffffffffffffffffffffffffff169060200190929190505050610cc0565b604051808260ff1660ff16815260200191505060405180910390f35b34801561039d57600080fd5b506103c0600480360381019080803561ffff169060200190929190505050610d41565b6040518080602001828103825283818151815260200191508051906020019080838360005b838110156104005780820151818401526020810190506103e5565b50505050905090810190601f16801561042d5780820380516001836020036101000a031916815260200191505b509250505060405180910390f35b34801561044757600080fd5b50610450610e01565b005b34801561045e57600080fd5b50610481600480360381019080803561ffff169060200190929190505050610f03565b6040518082815260200191505060405180910390f35b3480156104a357600080fd5b506104d0600480360381019080803561ffff16906020019092919080359060200190929190505050610f2b565b005b3480156104de57600080fd5b50610521600480360381019080803561ffff169060200190929190803573ffffffffffffffffffffffffffffffffffffffff169060200190929190505050610fad565b6040518082815260200191505060405180910390f35b34801561054357600080fd5b5061054c611021565b604051808273ffffffffffffffffffffffffffffffffffffffff1673ffffffffffffffffffffffffffffffffffffffff16815260200191505060405180910390f35b34801561059a57600080fd5b50610645600480360381019080803590602001908201803590602001908080601f0160208091040260200160405190810160405280939291908181526020018383808284378201915050505050509192919290803590602001908201803590602001908080601f016020809104026020016040519081016040528093929190818152602001838380828437820191505050505050919291929080359060200190929190505050611046565b005b34801561065357600080fd5b5061065c6111da565b6040518082815260200191505060405180910390f35b34801561067e57600080fd5b506106a1600480360381019080803561ffff16906020019092919050505061123f565b604051808215151515815260200191505060405180910390f35b3480156106c757600080fd5b506106ea600480360381019080803561ffff1690602001909291905050506112ff565b604051808215151515815260200191505060405180910390f35b34801561071057600080fd5b50610753600480360381019080803561ffff169060200190929190803573ffffffffffffffffffffffffffffffffffffffff16906020019092919050505061136e565b6040518082815260200191505060405180910390f35b610798600480360381019080803561ffff169060200190929190803560ff1690602001909291905050506115b5565b005b3480156107a657600080fd5b506107c56004803603810190808035906020019092919050505061185e565b005b3480156107d357600080fd5b506107f6600480360381019080803561ffff1690602001909291905050506118c3565b6040518082815260200191505060405180910390f35b34801561081857600080fd5b506108216118eb565b604051808261ffff1661ffff16815260200191505060405180910390f35b34801561084b57600080fd5b5061087b600480360381019080803561ffff169060200190929190803560ff169060200190929190505050611903565b005b34801561088957600080fd5b506108be600480360381019080803573ffffffffffffffffffffffffffffffffffffffff169060200190929190505050611999565b005b6000809054906101000a900473ffffffffffffffffffffffffffffffffffffffff1673ffffffffffffffffffffffffffffffffffffffff163373ffffffffffffffffffffffffffffffffffffffff1614151561091b57600080fd5b80600160008461ffff1661ffff16815260200190815260200160002060070160016101000a81548160ff0219169083151502179055505050565b6000809054906101000a900473ffffffffffffffffffffffffffffffffffffffff1673ffffffffffffffffffffffffffffffffffffffff163373ffffffffffffffffffffffffffffffffffffffff161415156109b057600080fd5b6109c581600454611aee90919063ffffffff16565b6004819055503373ffffffffffffffffffffffffffffffffffffffff166108fc829081150290604051600060405180830381858888f19350505050158015610a11573d6000803e3d6000fd5b5050565b6060600160008361ffff1661ffff1681526020019081526020016000206000018054600181600116156101000203166002900480601f016020809104026020016040519081016040528092919081815260200182805460018160011615610100020316600290048015610ac95780601f10610a9e57610100808354040283529160200191610ac9565b820191906000526020600020905b815481529060010190602001808311610aac57829003601f168201915b50505050509050919050565b6000600160008361ffff1661ffff168152602001908152602001600020600401549050919050565b6000600160008361ffff1661ffff168152602001908152602001600020600201549050919050565b600080600080600080600160008861ffff1661ffff16815260200190815260200160002094508460080160003373ffffffffffffffffffffffffffffffffffffffff1673ffffffffffffffffffffffffffffffffffffffff1681526020019081526020016000209350610b98873361136e565b9250600083111515610bad5760009550610cb6565b60008560070160009054906101000a900460ff1660ff161415610bd35760009550610cb6565b8360010160009054906101000a900460ff1660ff168560070160009054906101000a900460ff1660ff16141515610c0d5760009550610cb6565b606483811515610c1957fe5b049150610c3182600454611b0790919063ffffffff16565b600481905550610c4b606383611b2390919063ffffffff16565b905060008460010160006101000a81548160ff021916908360ff1602179055503373ffffffffffffffffffffffffffffffffffffffff166108fc829081150290604051600060405180830381858888f19350505050158015610cb1573d6000803e3d6000fd5b508095505b5050505050919050565b6000806000600160008661ffff1661ffff16815260200190815260200160002091508160080160008573ffffffffffffffffffffffffffffffffffffffff1673ffffffffffffffffffffffffffffffffffffffff16815260200190815260200160002090508060010160009054906101000a900460ff169250505092915050565b6060600160008361ffff1661ffff1681526020019081526020016000206001018054600181600116156101000203166002900480601f016020809104026020016040519081016040528092919081815260200182805460018160011615610100020316600290048015610df55780601f10610dca57610100808354040283529160200191610df5565b820191906000526020600020905b815481529060010190602001808311610dd857829003601f168201915b50505050509050919050565b6000809054906101000a900473ffffffffffffffffffffffffffffffffffffffff1673ffffffffffffffffffffffffffffffffffffffff163373ffffffffffffffffffffffffffffffffffffffff16141515610e5c57600080fd5b6000809054906101000a900473ffffffffffffffffffffffffffffffffffffffff1673ffffffffffffffffffffffffffffffffffffffff167ff8df31144d9c2f0f6b59d69b8b98abd5459d07f2742c4df920b25aae33c6482060405160405180910390a260008060006101000a81548173ffffffffffffffffffffffffffffffffffffffff021916908373ffffffffffffffffffffffffffffffffffffffff160217905550565b6000600160008361ffff1661ffff168152602001908152602001600020600601549050919050565b6000809054906101000a900473ffffffffffffffffffffffffffffffffffffffff1673ffffffffffffffffffffffffffffffffffffffff163373ffffffffffffffffffffffffffffffffffffffff16141515610f8657600080fd5b80600160008461ffff1661ffff168152602001908152602001600020600201819055505050565b6000806000600160008661ffff1661ffff16815260200190815260200160002091508160080160008573ffffffffffffffffffffffffffffffffffffffff1673ffffffffffffffffffffffffffffffffffffffff168152602001908152602001600020905080600001549250505092915050565b6000809054906101000a900473ffffffffffffffffffffffffffffffffffffffff1681565b6000809054906101000a900473ffffffffffffffffffffffffffffffffffffffff1673ffffffffffffffffffffffffffffffffffffffff163373ffffffffffffffffffffffffffffffffffffffff161415156110a157600080fd5b8260016000600260009054906101000a900461ffff1661ffff1661ffff16815260200190815260200160002060000190805190602001906110e3929190611b71565b508160016000600260009054906101000a900461ffff1661ffff1661ffff1681526020019081526020016000206001019080519060200190611126929190611b71565b508060016000600260009054906101000a900461ffff1661ffff1661ffff168152602001908152602001600020600201819055506001806000600260009054906101000a900461ffff1661ffff1661ffff16815260200190815260200160002060070160016101000a81548160ff0219169083151502179055506002600081819054906101000a900461ffff168092919060010191906101000a81548161ffff021916908361ffff16021790555050505050565b60008060009054906101000a900473ffffffffffffffffffffffffffffffffffffffff1673ffffffffffffffffffffffffffffffffffffffff163373ffffffffffffffffffffffffffffffffffffffff1614151561123757600080fd5b600454905090565b6000806000600160008561ffff1661ffff16815260200190815260200160002091508160080160003373ffffffffffffffffffffffffffffffffffffffff1673ffffffffffffffffffffffffffffffffffffffff168152602001908152602001600020905060008260070160009054906101000a900460ff1660ff1614156112ca57600092506112f8565b8060010160009054906101000a900460ff1660ff168260070160009054906101000a900460ff1660ff161492505b5050919050565b6000801515600160008461ffff1661ffff16815260200190815260200160002060070160019054906101000a900460ff16151514156113415760009050611369565b600354600160008461ffff1661ffff1681526020019081526020016000206002015401421090505b919050565b6000806000806000806000600160008a61ffff1661ffff16815260200190815260200160002094508460080160008973ffffffffffffffffffffffffffffffffffffffff1673ffffffffffffffffffffffffffffffffffffffff168152602001908152602001600020935060008560070160009054906101000a900460ff1660ff1614156113ff57600096506115a9565b8360010160009054906101000a900460ff1660ff168560070160009054906101000a900460ff1660ff1614151561143957600096506115a9565b633b9aca00915060018460010160009054906101000a900460ff1660ff16141561149457611474856005015484611b0790919063ffffffff16565b925061148d856006015484611b0790919063ffffffff16565b925061153a565b60028460010160009054906101000a900460ff1660ff1614156114e8576114c8856004015484611b0790919063ffffffff16565b92506114e1856006015484611b0790919063ffffffff16565b9250611539565b60038460010160009054906101000a900460ff1660ff1614156115385761151c856004015484611b0790919063ffffffff16565b9250611535856005015484611b0790919063ffffffff16565b92505b5b5b61156383611555848760000154611b2390919063ffffffff16565b611b5b90919063ffffffff16565b905061158a8261157c8386611b2390919063ffffffff16565b611b5b90919063ffffffff16565b95506115a3846000015487611b0790919063ffffffff16565b95508596505b50505050505092915050565b600080836115c2816112ff565b15156115cd57600080fd5b60008460ff161180156115e3575060048460ff16105b15156115ee57600080fd5b600160008661ffff1661ffff16815260200190815260200160002092508260080160003373ffffffffffffffffffffffffffffffffffffffff1673ffffffffffffffffffffffffffffffffffffffff168152602001908152602001600020915060008260010160009054906101000a900460ff1660ff16148061168757508360ff168260010160009054906101000a900460ff1660ff16145b151561169257600080fd5b34826000016000828254019250508190555060008260010160009054906101000a900460ff1660ff1614156116df57838260010160006101000a81548160ff021916908360ff1602179055505b60018460ff16141561171c5734600160008761ffff1661ffff16815260200190815260200160002060040160008282540192505081905550611794565b60028460ff1614156117595734600160008761ffff1661ffff16815260200190815260200160002060050160008282540192505081905550611793565b60038460ff1614156117925734600160008761ffff1661ffff168152602001908152602001600020600601600082825401925050819055505b5b5b600160008661ffff1661ffff168152602001908152602001600020600301600081819054906101000a900463ffffffff168092919060010191906101000a81548163ffffffff021916908363ffffffff160217905550503373ffffffffffffffffffffffffffffffffffffffff167f2c23b439a6de9785cb385d0aed4954f9a7f804203d01b25584082a540cc95c8e868634604051808461ffff1661ffff1681526020018360ff1660ff168152602001828152602001935050505060405180910390a25050505050565b6000809054906101000a900473ffffffffffffffffffffffffffffffffffffffff1673ffffffffffffffffffffffffffffffffffffffff163373ffffffffffffffffffffffffffffffffffffffff161415156118b957600080fd5b8060038190555050565b6000600160008361ffff1661ffff168152602001908152602001600020600501549050919050565b6000600260009054906101000a900461ffff16905090565b6000809054906101000a900473ffffffffffffffffffffffffffffffffffffffff1673ffffffffffffffffffffffffffffffffffffffff163373ffffffffffffffffffffffffffffffffffffffff1614151561195e57600080fd5b80600160008461ffff1661ffff16815260200190815260200160002060070160006101000a81548160ff021916908360ff1602179055505050565b6000809054906101000a900473ffffffffffffffffffffffffffffffffffffffff1673ffffffffffffffffffffffffffffffffffffffff163373ffffffffffffffffffffffffffffffffffffffff161415156119f457600080fd5b600073ffffffffffffffffffffffffffffffffffffffff168173ffffffffffffffffffffffffffffffffffffffff1614151515611a3057600080fd5b8073ffffffffffffffffffffffffffffffffffffffff166000809054906101000a900473ffffffffffffffffffffffffffffffffffffffff1673ffffffffffffffffffffffffffffffffffffffff167f8be0079c531659141344cd1fd0a4f28419497f9722a3daafe3b4186f6b6457e060405160405180910390a3806000806101000a81548173ffffffffffffffffffffffffffffffffffffffff021916908373ffffffffffffffffffffffffffffffffffffffff16021790555050565b6000828211151515611afc57fe5b818303905092915050565b60008183019050828110151515611b1a57fe5b80905092915050565b600080831415611b365760009050611b55565b8183029050818382811515611b4757fe5b04141515611b5157fe5b8090505b92915050565b60008183811515611b6857fe5b04905092915050565b828054600181600116156101000203166002900490600052602060002090601f016020900481019282601f10611bb257805160ff1916838001178555611be0565b82800160010185558215611be0579182015b82811115611bdf578251825591602001919060010190611bc4565b5b509050611bed9190611bf1565b5090565b611c1391905b80821115611c0f576000816000905550600101611bf7565b5090565b905600a165627a7a72305820646d3964592a12b457f2aa005f2a4c23c5d768ed03a3d1f4db2cb62c5a77efd30029",
  "source": "pragma solidity ^0.4.21;\n\nimport \"./Ownable.sol\";\n\ncontract FifaWorldCup is Ownable{\n  using SafeMath for uint256;\n  modifier onlyNotFinished(uint16 _gameId) {\n    require(canVote(_gameId));\n    _;\n  }\n\n  struct Vote {\n    uint256 deposit;\n    uint8 vote;\n  }\n\n  struct Game {\n    string teamA;\n    string teamB;\n    uint startTime;\n    uint32 voteCount; \n    uint256 win;\n    uint256 draw;\n    uint256 lose;\n    uint8 result;\n    bool canVote;\n    mapping(address => Vote) votes;\n  }\n\n  event Deposit(\n    address indexed _from,\n    uint16 _gameId,\n    uint8 _direction,\n    uint _value\n  );\n\n  mapping (uint16 => Game) games;\n  uint16 gameCount;\n  uint delay = 0;\n  uint256 researchPot;\n\n  constructor() public {\n    // matchDay = 1528988400;\n  }\n  function setDelay(uint _delay) public onlyOwner {\n    delay = _delay;\n  }\n  function canVote(uint16 _gameId) public view returns (bool) {\n    if (games[_gameId].canVote == false) {\n      return false;\n    } else {\n      return now < (games[_gameId].startTime + delay);\n    }\n  }\n  function setCanVote(uint16 _gameId, bool _canVote) public onlyOwner {\n    games[_gameId].canVote = _canVote;\n  }\n  function getGameCount() public view returns (uint16) {\n    return gameCount;\n  }\n  function getTeamA(uint16 _gameId) public view returns (string) {\n    return games[_gameId].teamA;\n  }\n  function getTeamB(uint16 _gameId) public view returns (string) {\n    return games[_gameId].teamB;\n  }\n  function getStartTime(uint16 _gameId) public view returns (uint) {\n    return games[_gameId].startTime;\n  }\n  function setStartTime(uint16 _gameId, uint _startTime) public onlyOwner {\n    games[_gameId].startTime = _startTime;\n  }\n  function getWinVote(uint16 _gameId) public view returns (uint) {\n    return games[_gameId].win;\n  }\n  function getDrawVote(uint16 _gameId) public view returns (uint) {\n    return games[_gameId].draw;\n  }\n  function getLoseVote(uint16 _gameId) public view returns (uint) {\n    return games[_gameId].lose;\n  }\n  function setResult(uint16 _gameId, uint8 _result) public onlyOwner {\n    games[_gameId].result = _result;\n  }\n  function getResearchPot() public view onlyOwner returns (uint256) {\n    return researchPot;\n  }\n\n  function addGame(string _teamA, string _teamB, uint _startTime) public onlyOwner {\n    games[gameCount].teamA = _teamA;\n    games[gameCount].teamB = _teamB;\n    games[gameCount].startTime = _startTime;\n    games[gameCount].canVote = true;\n    gameCount++;\n  }\n\n  function castVote(uint16 _gameId, uint8 _direction) public payable onlyNotFinished(_gameId) {\n    require(_direction > 0 && _direction < 4);\n    Game storage game = games[_gameId];\n    Vote storage myVote = game.votes[msg.sender];\n    require(myVote.vote == 0 || myVote.vote == _direction);\n    myVote.deposit += msg.value;\n    if (myVote.vote == 0) {\n      myVote.vote = _direction;\n    }\n    if (_direction == 1) {\n      games[_gameId].win += msg.value;\n    } else if (_direction == 2) {\n      games[_gameId].draw += msg.value;\n    } else if (_direction == 3) {\n      games[_gameId].lose += msg.value;\n    }\n    games[_gameId].voteCount++;\n\n    emit Deposit(msg.sender, _gameId, _direction, msg.value);\n  }\n  function getDeposit(uint16 _gameId, address _voter) view public returns (uint256) {\n    Game storage game = games[_gameId];\n    Vote storage myVote = game.votes[_voter];\n    return myVote.deposit;\n  }\n  function getVote(uint16 _gameId, address _voter) view public returns (uint8) {\n    Game storage game = games[_gameId];\n    Vote storage myVote = game.votes[_voter];\n    return myVote.vote;\n  }\n  function getWinning(uint16 _gameId, address _voter) view public returns (uint256) {\n    uint256 winning;\n    Game storage game = games[_gameId];\n    Vote storage myVote = game.votes[_voter];\n    if (game.result == 0)\n      return 0;\n    if (game.result != myVote.vote)\n      return 0;\n    uint256 pot;\n    uint base = 10 ** 9;\n    uint fraction;\n    \n    if (myVote.vote == 1) {\n      pot = pot.add(game.draw);\n      pot = pot.add(game.lose);\n    } else if (myVote.vote == 2) {\n      pot = pot.add(game.win);\n      pot = pot.add(game.lose);\n    } else if (myVote.vote == 3) {\n      pot = pot.add(game.win);\n      pot = pot.add(game.draw);\n    }\n\n    fraction = (myVote.deposit.mul(base)).div(pot);\n    winning = (pot.mul(fraction)).div(base);\n    winning = winning.add(myVote.deposit);\n    return winning;\n  }\n\n  function withdraw(uint16 _gameId) public returns(uint) {\n    Game storage game = games[_gameId];\n    Vote storage myVote = game.votes[msg.sender];\n    uint256 winning = getWinning(_gameId, msg.sender);\n\n    if (winning <= 0) \n      return 0;\n    if (game.result == 0)\n      return 0;\n    if (game.result != myVote.vote)\n      return 0;\n\n    uint256 winning1Percent = winning / 100;\n    researchPot = researchPot.add(winning1Percent);\n    uint256 winning99Percent = winning1Percent.mul(99);\n    myVote.vote = 0;\n    msg.sender.transfer(winning99Percent);\n    return winning99Percent;\n  }\n  function canWithDraw(uint16 _gameId) view public returns(bool) {\n    Game storage game = games[_gameId];\n    Vote storage myVote = game.votes[msg.sender];\n    if (game.result == 0) {\n      return false;\n    }\n    return (game.result == myVote.vote);\n  }\n  function getPaid(uint256 amount) public onlyOwner {\n    researchPot = researchPot.sub(amount);\n    msg.sender.transfer(amount);\n  }\n}\n\n\n/**\n * @title SafeMath\n * @dev Math operations with safety checks that throw on error\n */\nlibrary SafeMath {\n\n  /**\n  * @dev Multiplies two numbers, throws on overflow.\n  */\n  function mul(uint256 a, uint256 b) internal pure returns (uint256 c) {\n    if (a == 0) {\n      return 0;\n    }\n    c = a * b;\n    assert(c / a == b);\n    return c;\n  }\n\n  /**\n  * @dev Integer division of two numbers, truncating the quotient.\n  */\n  function div(uint256 a, uint256 b) internal pure returns (uint256) {\n    // assert(b > 0); // Solidity automatically throws when dividing by 0\n    // uint256 c = a / b;\n    // assert(a == b * c + a % b); // There is no case in which this doesn't hold\n    return a / b;\n  }\n\n  /**\n  * @dev Subtracts two numbers, throws on overflow (i.e. if subtrahend is greater than minuend).\n  */\n  function sub(uint256 a, uint256 b) internal pure returns (uint256) {\n    assert(b <= a);\n    return a - b;\n  }\n\n  /**\n  * @dev Adds two numbers, throws on overflow.\n  */\n  function add(uint256 a, uint256 b) internal pure returns (uint256 c) {\n    c = a + b;\n    assert(c >= a);\n    return c;\n  }\n}",
  "sourcePath": "/Users/alant/Developer/etherFifa/contracts/FifaWoldCup.sol",
  "compiler": {
    "name": "solc",
    "version": "0.4.23+commit.124ca40d.Emscripten.clang"
  },
  "schemaVersion": "2.0.0",
  "updatedAt": "2018-06-13T16:49:57.095Z"
}