{
  "contractName": "FifaWorldCup",
  "abi": [
    {
      "constant": false,
      "inputs": [],
      "name": "renounceOwnership",
      "outputs": [],
      "payable": false,
      "stateMutability": "nonpayable",
      "type": "function"
    },
    {
      "constant": true,
      "inputs": [],
      "name": "owner",
      "outputs": [
        {
          "name": "",
          "type": "address"
        }
      ],
      "payable": false,
      "stateMutability": "view",
      "type": "function"
    },
    {
      "constant": false,
      "inputs": [
        {
          "name": "newOwner",
          "type": "address"
        }
      ],
      "name": "transferOwnership",
      "outputs": [],
      "payable": false,
      "stateMutability": "nonpayable",
      "type": "function"
    },
    {
      "inputs": [],
      "payable": false,
      "stateMutability": "nonpayable",
      "type": "constructor"
    },
    {
      "anonymous": false,
      "inputs": [
        {
          "indexed": true,
          "name": "_from",
          "type": "address"
        },
        {
          "indexed": false,
          "name": "_gameId",
          "type": "uint16"
        },
        {
          "indexed": false,
          "name": "_direction",
          "type": "uint8"
        },
        {
          "indexed": false,
          "name": "_value",
          "type": "uint256"
        }
      ],
      "name": "Deposit",
      "type": "event"
    },
    {
      "anonymous": false,
      "inputs": [
        {
          "indexed": true,
          "name": "previousOwner",
          "type": "address"
        }
      ],
      "name": "OwnershipRenounced",
      "type": "event"
    },
    {
      "anonymous": false,
      "inputs": [
        {
          "indexed": true,
          "name": "previousOwner",
          "type": "address"
        },
        {
          "indexed": true,
          "name": "newOwner",
          "type": "address"
        }
      ],
      "name": "OwnershipTransferred",
      "type": "event"
    },
    {
      "constant": true,
      "inputs": [
        {
          "name": "_gameId",
          "type": "uint8"
        }
      ],
      "name": "canVote",
      "outputs": [
        {
          "name": "",
          "type": "bool"
        }
      ],
      "payable": false,
      "stateMutability": "view",
      "type": "function"
    },
    {
      "constant": false,
      "inputs": [
        {
          "name": "_gameId",
          "type": "uint8"
        },
        {
          "name": "_canVote",
          "type": "bool"
        }
      ],
      "name": "setCanVote",
      "outputs": [],
      "payable": false,
      "stateMutability": "nonpayable",
      "type": "function"
    },
    {
      "constant": true,
      "inputs": [],
      "name": "getGameCount",
      "outputs": [
        {
          "name": "",
          "type": "uint16"
        }
      ],
      "payable": false,
      "stateMutability": "view",
      "type": "function"
    },
    {
      "constant": true,
      "inputs": [
        {
          "name": "_gameId",
          "type": "uint8"
        }
      ],
      "name": "getTeamA",
      "outputs": [
        {
          "name": "",
          "type": "string"
        }
      ],
      "payable": false,
      "stateMutability": "view",
      "type": "function"
    },
    {
      "constant": true,
      "inputs": [
        {
          "name": "_gameId",
          "type": "uint8"
        }
      ],
      "name": "getTeamB",
      "outputs": [
        {
          "name": "",
          "type": "string"
        }
      ],
      "payable": false,
      "stateMutability": "view",
      "type": "function"
    },
    {
      "constant": true,
      "inputs": [
        {
          "name": "_gameId",
          "type": "uint8"
        }
      ],
      "name": "getStartTime",
      "outputs": [
        {
          "name": "",
          "type": "uint256"
        }
      ],
      "payable": false,
      "stateMutability": "view",
      "type": "function"
    },
    {
      "constant": false,
      "inputs": [
        {
          "name": "_gameId",
          "type": "uint8"
        },
        {
          "name": "_startTime",
          "type": "uint256"
        }
      ],
      "name": "setStartTime",
      "outputs": [],
      "payable": false,
      "stateMutability": "nonpayable",
      "type": "function"
    },
    {
      "constant": true,
      "inputs": [
        {
          "name": "_gameId",
          "type": "uint8"
        }
      ],
      "name": "getWinVote",
      "outputs": [
        {
          "name": "",
          "type": "uint256"
        }
      ],
      "payable": false,
      "stateMutability": "view",
      "type": "function"
    },
    {
      "constant": true,
      "inputs": [
        {
          "name": "_gameId",
          "type": "uint8"
        }
      ],
      "name": "getDrawVote",
      "outputs": [
        {
          "name": "",
          "type": "uint256"
        }
      ],
      "payable": false,
      "stateMutability": "view",
      "type": "function"
    },
    {
      "constant": true,
      "inputs": [
        {
          "name": "_gameId",
          "type": "uint8"
        }
      ],
      "name": "getLoseVote",
      "outputs": [
        {
          "name": "",
          "type": "uint256"
        }
      ],
      "payable": false,
      "stateMutability": "view",
      "type": "function"
    },
    {
      "constant": false,
      "inputs": [
        {
          "name": "_gameId",
          "type": "uint8"
        },
        {
          "name": "_result",
          "type": "uint8"
        }
      ],
      "name": "setResult",
      "outputs": [],
      "payable": false,
      "stateMutability": "nonpayable",
      "type": "function"
    },
    {
      "constant": true,
      "inputs": [],
      "name": "getResearchPot",
      "outputs": [
        {
          "name": "",
          "type": "uint256"
        }
      ],
      "payable": false,
      "stateMutability": "view",
      "type": "function"
    },
    {
      "constant": false,
      "inputs": [
        {
          "name": "_teamA",
          "type": "string"
        },
        {
          "name": "_teamB",
          "type": "string"
        },
        {
          "name": "_startTime",
          "type": "uint256"
        }
      ],
      "name": "addGame",
      "outputs": [],
      "payable": false,
      "stateMutability": "nonpayable",
      "type": "function"
    },
    {
      "constant": false,
      "inputs": [
        {
          "name": "_gameId",
          "type": "uint8"
        },
        {
          "name": "_direction",
          "type": "uint8"
        }
      ],
      "name": "castVote",
      "outputs": [],
      "payable": true,
      "stateMutability": "payable",
      "type": "function"
    },
    {
      "constant": true,
      "inputs": [
        {
          "name": "_gameId",
          "type": "uint8"
        },
        {
          "name": "_voter",
          "type": "address"
        }
      ],
      "name": "getDeposit",
      "outputs": [
        {
          "name": "",
          "type": "uint256"
        }
      ],
      "payable": false,
      "stateMutability": "view",
      "type": "function"
    },
    {
      "constant": true,
      "inputs": [
        {
          "name": "_gameId",
          "type": "uint8"
        },
        {
          "name": "_voter",
          "type": "address"
        }
      ],
      "name": "getVote",
      "outputs": [
        {
          "name": "",
          "type": "uint8"
        }
      ],
      "payable": false,
      "stateMutability": "view",
      "type": "function"
    },
    {
      "constant": true,
      "inputs": [
        {
          "name": "_gameId",
          "type": "uint8"
        },
        {
          "name": "_voter",
          "type": "address"
        }
      ],
      "name": "getWinning",
      "outputs": [
        {
          "name": "",
          "type": "uint256"
        }
      ],
      "payable": false,
      "stateMutability": "view",
      "type": "function"
    },
    {
      "constant": false,
      "inputs": [
        {
          "name": "_gameId",
          "type": "uint8"
        }
      ],
      "name": "withdraw",
      "outputs": [
        {
          "name": "",
          "type": "uint256"
        }
      ],
      "payable": false,
      "stateMutability": "nonpayable",
      "type": "function"
    },
    {
      "constant": true,
      "inputs": [
        {
          "name": "_gameId",
          "type": "uint8"
        }
      ],
      "name": "canWithDraw",
      "outputs": [
        {
          "name": "",
          "type": "bool"
        }
      ],
      "payable": false,
      "stateMutability": "view",
      "type": "function"
    },
    {
      "constant": false,
      "inputs": [
        {
          "name": "amount",
          "type": "uint256"
        }
      ],
      "name": "getPaid",
      "outputs": [],
      "payable": false,
      "stateMutability": "nonpayable",
      "type": "function"
    }
  ],
  "bytecode": "0x608060405234801561001057600080fd5b50336000806101000a81548173ffffffffffffffffffffffffffffffffffffffff021916908373ffffffffffffffffffffffffffffffffffffffff1602179055506000600260006101000a81548160ff021916908360ff1602179055506000600381905550611b7b806100846000396000f300608060405260043610610133576000357c0100000000000000000000000000000000000000000000000000000000900463ffffffff168063051976c8146101385780632a92362c1461018057806343a1696c146101ad5780634824984f146101e7578063488a571c1461029057806351854a57146102d8578063715018a614610308578063777b173c1461031f5780638da5cb5b146103895780639d75ad6e146103e0578063a5c86b7714610424578063ae1dccff146104dd578063c6ab5d9014610508578063ce2b6e401461054c578063d7da792d14610590578063dfaf4482146105f4578063e1e378ad1461069d578063e87c0ee6146106e1578063f1c21cb614610714578063f2fde38b14610778578063f6c9fd5e146107bb578063f777bd20146107f8578063f9390a7814610834575b600080fd5b34801561014457600080fd5b50610166600480360381019080803560ff169060200190929190505050610878565b604051808215151515815260200191505060405180910390f35b34801561018c57600080fd5b506101ab60048036038101908080359060200190929190505050610936565b005b3480156101b957600080fd5b506101e5600480360381019080803560ff169060200190929190803590602001909291905050506109f6565b005b3480156101f357600080fd5b50610215600480360381019080803560ff169060200190929190505050610a76565b6040518080602001828103825283818151815260200191508051906020019080838360005b8381101561025557808201518184015260208101905061023a565b50505050905090810190601f1680156102825780820380516001836020036101000a031916815260200191505b509250505060405180910390f35b34801561029c57600080fd5b506102be600480360381019080803560ff169060200190929190505050610b34565b604051808215151515815260200191505060405180910390f35b610306600480360381019080803560ff169060200190929190803560ff169060200190929190505050610b9b565b005b34801561031457600080fd5b5061031d610e39565b005b34801561032b57600080fd5b5061036d600480360381019080803560ff169060200190929190803573ffffffffffffffffffffffffffffffffffffffff169060200190929190505050610f3b565b604051808260ff1660ff16815260200191505060405180910390f35b34801561039557600080fd5b5061039e610fba565b604051808273ffffffffffffffffffffffffffffffffffffffff1673ffffffffffffffffffffffffffffffffffffffff16815260200191505060405180910390f35b3480156103ec57600080fd5b5061040e600480360381019080803560ff169060200190929190505050610fdf565b6040518082815260200191505060405180910390f35b34801561043057600080fd5b506104db600480360381019080803590602001908201803590602001908080601f0160208091040260200160405190810160405280939291908181526020018383808284378201915050505050509192919290803590602001908201803590602001908080601f016020809104026020016040519081016040528093929190818152602001838380828437820191505050505050919291929080359060200190929190505050611005565b005b3480156104e957600080fd5b506104f26111ac565b6040518082815260200191505060405180910390f35b34801561051457600080fd5b50610536600480360381019080803560ff169060200190929190505050611211565b6040518082815260200191505060405180910390f35b34801561055857600080fd5b5061057a600480360381019080803560ff1690602001909291905050506113aa565b6040518082815260200191505060405180910390f35b34801561059c57600080fd5b506105de600480360381019080803560ff169060200190929190803573ffffffffffffffffffffffffffffffffffffffff1690602001909291905050506113d0565b6040518082815260200191505060405180910390f35b34801561060057600080fd5b50610622600480360381019080803560ff169060200190929190505050611442565b6040518080602001828103825283818151815260200191508051906020019080838360005b83811015610662578082015181840152602081019050610647565b50505050905090810190601f16801561068f5780820380516001836020036101000a031916815260200191505b509250505060405180910390f35b3480156106a957600080fd5b506106cb600480360381019080803560ff169060200190929190505050611500565b6040518082815260200191505060405180910390f35b3480156106ed57600080fd5b506106f6611526565b604051808261ffff1661ffff16815260200191505060405180910390f35b34801561072057600080fd5b50610762600480360381019080803560ff169060200190929190803573ffffffffffffffffffffffffffffffffffffffff169060200190929190505050611540565b6040518082815260200191505060405180910390f35b34801561078457600080fd5b506107b9600480360381019080803573ffffffffffffffffffffffffffffffffffffffff169060200190929190505050611785565b005b3480156107c757600080fd5b506107f6600480360381019080803560ff169060200190929190803560ff1690602001909291905050506118da565b005b34801561080457600080fd5b50610832600480360381019080803560ff16906020019092919080351515906020019092919050505061196e565b005b34801561084057600080fd5b50610862600480360381019080803560ff169060200190929190505050611a01565b6040518082815260200191505060405180910390f35b6000806000600160008560ff1660ff16815260200190815260200160002091508160080160003373ffffffffffffffffffffffffffffffffffffffff1673ffffffffffffffffffffffffffffffffffffffff168152602001908152602001600020905060008260070160009054906101000a900460ff1660ff161415610901576000925061092f565b8060010160009054906101000a900460ff1660ff168260070160009054906101000a900460ff1660ff161492505b5050919050565b6000809054906101000a900473ffffffffffffffffffffffffffffffffffffffff1673ffffffffffffffffffffffffffffffffffffffff163373ffffffffffffffffffffffffffffffffffffffff1614151561099157600080fd5b6109a681600354611a2790919063ffffffff16565b6003819055503373ffffffffffffffffffffffffffffffffffffffff166108fc829081150290604051600060405180830381858888f193505050501580156109f2573d6000803e3d6000fd5b5050565b6000809054906101000a900473ffffffffffffffffffffffffffffffffffffffff1673ffffffffffffffffffffffffffffffffffffffff163373ffffffffffffffffffffffffffffffffffffffff16141515610a5157600080fd5b80600160008460ff1660ff168152602001908152602001600020600201819055505050565b6060600160008360ff1660ff1681526020019081526020016000206000018054600181600116156101000203166002900480601f016020809104026020016040519081016040528092919081815260200182805460018160011615610100020316600290048015610b285780601f10610afd57610100808354040283529160200191610b28565b820191906000526020600020905b815481529060010190602001808311610b0b57829003601f168201915b50505050509050919050565b6000801515600160008460ff1660ff16815260200190815260200160002060070160019054906101000a900460ff1615151415610b745760009050610b96565b600160008360ff1660ff16815260200190815260200160002060020154421090505b919050565b60008083610ba881610b34565b1515610bb357600080fd5b60008460ff16118015610bc9575060048460ff16105b1515610bd457600080fd5b600160008660ff1660ff16815260200190815260200160002092508260080160003373ffffffffffffffffffffffffffffffffffffffff1673ffffffffffffffffffffffffffffffffffffffff168152602001908152602001600020915060008260010160009054906101000a900460ff1660ff161480610c6b57508360ff168260010160009054906101000a900460ff1660ff16145b1515610c7657600080fd5b34826000016000828254019250508190555060008260010160009054906101000a900460ff1660ff161415610cc357838260010160006101000a81548160ff021916908360ff1602179055505b60018460ff161415610cfe5734600160008760ff1660ff16815260200190815260200160002060040160008282540192505081905550610d72565b60028460ff161415610d395734600160008760ff1660ff16815260200190815260200160002060050160008282540192505081905550610d71565b60038460ff161415610d705734600160008760ff1660ff168152602001908152602001600020600601600082825401925050819055505b5b5b600160008660ff1660ff168152602001908152602001600020600301600081819054906101000a900463ffffffff168092919060010191906101000a81548163ffffffff021916908363ffffffff160217905550503373ffffffffffffffffffffffffffffffffffffffff167f2c23b439a6de9785cb385d0aed4954f9a7f804203d01b25584082a540cc95c8e868634604051808460ff1661ffff1681526020018360ff1660ff168152602001828152602001935050505060405180910390a25050505050565b6000809054906101000a900473ffffffffffffffffffffffffffffffffffffffff1673ffffffffffffffffffffffffffffffffffffffff163373ffffffffffffffffffffffffffffffffffffffff16141515610e9457600080fd5b6000809054906101000a900473ffffffffffffffffffffffffffffffffffffffff1673ffffffffffffffffffffffffffffffffffffffff167ff8df31144d9c2f0f6b59d69b8b98abd5459d07f2742c4df920b25aae33c6482060405160405180910390a260008060006101000a81548173ffffffffffffffffffffffffffffffffffffffff021916908373ffffffffffffffffffffffffffffffffffffffff160217905550565b6000806000600160008660ff1660ff16815260200190815260200160002091508160080160008573ffffffffffffffffffffffffffffffffffffffff1673ffffffffffffffffffffffffffffffffffffffff16815260200190815260200160002090508060010160009054906101000a900460ff169250505092915050565b6000809054906101000a900473ffffffffffffffffffffffffffffffffffffffff1681565b6000600160008360ff1660ff168152602001908152602001600020600501549050919050565b6000809054906101000a900473ffffffffffffffffffffffffffffffffffffffff1673ffffffffffffffffffffffffffffffffffffffff163373ffffffffffffffffffffffffffffffffffffffff1614151561106057600080fd5b610100600260009054906101000a900460ff1660ff1610151561108257600080fd5b8260016000600260009054906101000a900460ff1660ff1660ff16815260200190815260200160002060000190805190602001906110c1929190611aaa565b508160016000600260009054906101000a900460ff1660ff1660ff1681526020019081526020016000206001019080519060200190611101929190611aaa565b508060016000600260009054906101000a900460ff1660ff1660ff168152602001908152602001600020600201819055506001806000600260009054906101000a900460ff1660ff1660ff16815260200190815260200160002060070160016101000a81548160ff0219169083151502179055506002600081819054906101000a900460ff168092919060010191906101000a81548160ff021916908360ff16021790555050505050565b60008060009054906101000a900473ffffffffffffffffffffffffffffffffffffffff1673ffffffffffffffffffffffffffffffffffffffff163373ffffffffffffffffffffffffffffffffffffffff1614151561120957600080fd5b600354905090565b600080600080600080600160008860ff1660ff16815260200190815260200160002094508460080160003373ffffffffffffffffffffffffffffffffffffffff1673ffffffffffffffffffffffffffffffffffffffff16815260200190815260200160002093506112828733611540565b925060008311151561129757600095506113a0565b60008560070160009054906101000a900460ff1660ff1614156112bd57600095506113a0565b8360010160009054906101000a900460ff1660ff168560070160009054906101000a900460ff1660ff161415156112f757600095506113a0565b60648381151561130357fe5b04915061131b82600354611a4090919063ffffffff16565b600381905550611335606383611a5c90919063ffffffff16565b905060008460010160006101000a81548160ff021916908360ff1602179055503373ffffffffffffffffffffffffffffffffffffffff166108fc829081150290604051600060405180830381858888f1935050505015801561139b573d6000803e3d6000fd5b508095505b5050505050919050565b6000600160008360ff1660ff168152602001908152602001600020600201549050919050565b6000806000600160008660ff1660ff16815260200190815260200160002091508160080160008573ffffffffffffffffffffffffffffffffffffffff1673ffffffffffffffffffffffffffffffffffffffff168152602001908152602001600020905080600001549250505092915050565b6060600160008360ff1660ff1681526020019081526020016000206001018054600181600116156101000203166002900480601f0160208091040260200160405190810160405280929190818152602001828054600181600116156101000203166002900480156114f45780601f106114c9576101008083540402835291602001916114f4565b820191906000526020600020905b8154815290600101906020018083116114d757829003601f168201915b50505050509050919050565b6000600160008360ff1660ff168152602001908152602001600020600601549050919050565b6000600260009054906101000a900460ff1660ff16905090565b6000806000806000806000600160008a60ff1660ff16815260200190815260200160002094508460080160008973ffffffffffffffffffffffffffffffffffffffff1673ffffffffffffffffffffffffffffffffffffffff168152602001908152602001600020935060008560070160009054906101000a900460ff1660ff1614156115cf5760009650611779565b8360010160009054906101000a900460ff1660ff168560070160009054906101000a900460ff1660ff161415156116095760009650611779565b633b9aca00915060018460010160009054906101000a900460ff1660ff16141561166457611644856005015484611a4090919063ffffffff16565b925061165d856006015484611a4090919063ffffffff16565b925061170a565b60028460010160009054906101000a900460ff1660ff1614156116b857611698856004015484611a4090919063ffffffff16565b92506116b1856006015484611a4090919063ffffffff16565b9250611709565b60038460010160009054906101000a900460ff1660ff161415611708576116ec856004015484611a4090919063ffffffff16565b9250611705856005015484611a4090919063ffffffff16565b92505b5b5b61173383611725848760000154611a5c90919063ffffffff16565b611a9490919063ffffffff16565b905061175a8261174c8386611a5c90919063ffffffff16565b611a9490919063ffffffff16565b9550611773846000015487611a4090919063ffffffff16565b95508596505b50505050505092915050565b6000809054906101000a900473ffffffffffffffffffffffffffffffffffffffff1673ffffffffffffffffffffffffffffffffffffffff163373ffffffffffffffffffffffffffffffffffffffff161415156117e057600080fd5b600073ffffffffffffffffffffffffffffffffffffffff168173ffffffffffffffffffffffffffffffffffffffff161415151561181c57600080fd5b8073ffffffffffffffffffffffffffffffffffffffff166000809054906101000a900473ffffffffffffffffffffffffffffffffffffffff1673ffffffffffffffffffffffffffffffffffffffff167f8be0079c531659141344cd1fd0a4f28419497f9722a3daafe3b4186f6b6457e060405160405180910390a3806000806101000a81548173ffffffffffffffffffffffffffffffffffffffff021916908373ffffffffffffffffffffffffffffffffffffffff16021790555050565b6000809054906101000a900473ffffffffffffffffffffffffffffffffffffffff1673ffffffffffffffffffffffffffffffffffffffff163373ffffffffffffffffffffffffffffffffffffffff1614151561193557600080fd5b80600160008460ff1660ff16815260200190815260200160002060070160006101000a81548160ff021916908360ff1602179055505050565b6000809054906101000a900473ffffffffffffffffffffffffffffffffffffffff1673ffffffffffffffffffffffffffffffffffffffff163373ffffffffffffffffffffffffffffffffffffffff161415156119c957600080fd5b80600160008460ff1660ff16815260200190815260200160002060070160016101000a81548160ff0219169083151502179055505050565b6000600160008360ff1660ff168152602001908152602001600020600401549050919050565b6000828211151515611a3557fe5b818303905092915050565b60008183019050828110151515611a5357fe5b80905092915050565b600080831415611a6f5760009050611a8e565b8183029050818382811515611a8057fe5b04141515611a8a57fe5b8090505b92915050565b60008183811515611aa157fe5b04905092915050565b828054600181600116156101000203166002900490600052602060002090601f016020900481019282601f10611aeb57805160ff1916838001178555611b19565b82800160010185558215611b19579182015b82811115611b18578251825591602001919060010190611afd565b5b509050611b269190611b2a565b5090565b611b4c91905b80821115611b48576000816000905550600101611b30565b5090565b905600a165627a7a723058200daa51f558cdad743174d779550db8b7a001f7119cff3355793b9568726fe8ee0029",
  "source": "pragma solidity ^0.4.21;\n\nimport \"./Ownable.sol\";\n\ncontract FifaWorldCup is Ownable{\n  using SafeMath for uint256;\n  modifier onlyNotFinished(uint8 _gameId) {\n    require(canVote(_gameId));\n    _;\n  }\n\n  struct Vote {\n    uint256 deposit;\n    uint8 vote;\n  }\n\n  struct Game {\n    string teamA;\n    string teamB;\n    uint startTime;\n    uint32 voteCount; \n    uint256 win;\n    uint256 draw;\n    uint256 lose;\n    uint8 result;\n    bool canVote;\n    mapping(address => Vote) votes;\n  }\n\n  event Deposit(\n    address indexed _from,\n    uint16 _gameId,\n    uint8 _direction,\n    uint _value\n  );\n\n  mapping (uint8 => Game) games;\n  uint8 gameCount;\n  uint256 researchPot;\n\n  constructor() public {\n    // matchDay = 1528988400;\n    gameCount = 0;\n    researchPot = 0;\n  }\n\n  function canVote(uint8 _gameId) public view returns (bool) {\n    if (games[_gameId].canVote == false) {\n      return false;\n    } else {\n      return now < games[_gameId].startTime;\n    }\n  }\n  function setCanVote(uint8 _gameId, bool _canVote) public onlyOwner {\n    games[_gameId].canVote = _canVote;\n  }\n  function getGameCount() public view returns (uint16) {\n    return gameCount;\n  }\n  function getTeamA(uint8 _gameId) public view returns (string) {\n    return games[_gameId].teamA;\n  }\n  function getTeamB(uint8 _gameId) public view returns (string) {\n    return games[_gameId].teamB;\n  }\n  function getStartTime(uint8 _gameId) public view returns (uint) {\n    return games[_gameId].startTime;\n  }\n  function setStartTime(uint8 _gameId, uint _startTime) public onlyOwner {\n    games[_gameId].startTime = _startTime;\n  }\n  function getWinVote(uint8 _gameId) public view returns (uint) {\n    return games[_gameId].win;\n  }\n  function getDrawVote(uint8 _gameId) public view returns (uint) {\n    return games[_gameId].draw;\n  }\n  function getLoseVote(uint8 _gameId) public view returns (uint) {\n    return games[_gameId].lose;\n  }\n  function setResult(uint8 _gameId, uint8 _result) public onlyOwner {\n    games[_gameId].result = _result;\n  }\n  function getResearchPot() public view onlyOwner returns (uint256) {\n    return researchPot;\n  }\n\n  function addGame(string _teamA, string _teamB, uint _startTime) public onlyOwner {\n    require(gameCount < 256);\n    games[gameCount].teamA = _teamA;\n    games[gameCount].teamB = _teamB;\n    games[gameCount].startTime = _startTime;\n    games[gameCount].canVote = true;\n    gameCount++;\n  }\n\n  function castVote(uint8 _gameId, uint8 _direction) public payable onlyNotFinished(_gameId) {\n    require(_direction > 0 && _direction < 4);\n    Game storage game = games[_gameId];\n    Vote storage myVote = game.votes[msg.sender];\n    require(myVote.vote == 0 || myVote.vote == _direction);\n    myVote.deposit += msg.value;\n    if (myVote.vote == 0) {\n      myVote.vote = _direction;\n    }\n    if (_direction == 1) {\n      games[_gameId].win += msg.value;\n    } else if (_direction == 2) {\n      games[_gameId].draw += msg.value;\n    } else if (_direction == 3) {\n      games[_gameId].lose += msg.value;\n    }\n    games[_gameId].voteCount++;\n\n    emit Deposit(msg.sender, _gameId, _direction, msg.value);\n  }\n  function getDeposit(uint8 _gameId, address _voter) view public returns (uint256) {\n    Game storage game = games[_gameId];\n    Vote storage myVote = game.votes[_voter];\n    return myVote.deposit;\n  }\n  function getVote(uint8 _gameId, address _voter) view public returns (uint8) {\n    Game storage game = games[_gameId];\n    Vote storage myVote = game.votes[_voter];\n    return myVote.vote;\n  }\n  function getWinning(uint8 _gameId, address _voter) view public returns (uint256) {\n    uint256 winning;\n    Game storage game = games[_gameId];\n    Vote storage myVote = game.votes[_voter];\n    if (game.result == 0)\n      return 0;\n    if (game.result != myVote.vote)\n      return 0;\n    uint256 pot;\n    uint base = 10 ** 9;\n    uint fraction;\n    \n    if (myVote.vote == 1) {\n      pot = pot.add(game.draw);\n      pot = pot.add(game.lose);\n    } else if (myVote.vote == 2) {\n      pot = pot.add(game.win);\n      pot = pot.add(game.lose);\n    } else if (myVote.vote == 3) {\n      pot = pot.add(game.win);\n      pot = pot.add(game.draw);\n    }\n\n    fraction = (myVote.deposit.mul(base)).div(pot);\n    winning = (pot.mul(fraction)).div(base);\n    winning = winning.add(myVote.deposit);\n    return winning;\n  }\n\n  function withdraw(uint8 _gameId) public returns(uint) {\n    Game storage game = games[_gameId];\n    Vote storage myVote = game.votes[msg.sender];\n    uint256 winning = getWinning(_gameId, msg.sender);\n\n    if (winning <= 0) \n      return 0;\n    if (game.result == 0)\n      return 0;\n    if (game.result != myVote.vote)\n      return 0;\n\n    uint256 winning1Percent = winning / 100;\n    researchPot = researchPot.add(winning1Percent);\n    uint256 winning99Percent = winning1Percent.mul(99);\n    myVote.vote = 0;\n    msg.sender.transfer(winning99Percent);\n    return winning99Percent;\n  }\n  function canWithDraw(uint8 _gameId) view public returns(bool) {\n    Game storage game = games[_gameId];\n    Vote storage myVote = game.votes[msg.sender];\n    if (game.result == 0) {\n      return false;\n    }\n    return (game.result == myVote.vote);\n  }\n  function getPaid(uint256 amount) public onlyOwner {\n    researchPot = researchPot.sub(amount);\n    msg.sender.transfer(amount);\n  }\n}\n\n\n/**\n * @title SafeMath\n * @dev Math operations with safety checks that throw on error\n */\nlibrary SafeMath {\n\n  /**\n  * @dev Multiplies two numbers, throws on overflow.\n  */\n  function mul(uint256 a, uint256 b) internal pure returns (uint256 c) {\n    if (a == 0) {\n      return 0;\n    }\n    c = a * b;\n    assert(c / a == b);\n    return c;\n  }\n\n  /**\n  * @dev Integer division of two numbers, truncating the quotient.\n  */\n  function div(uint256 a, uint256 b) internal pure returns (uint256) {\n    // assert(b > 0); // Solidity automatically throws when dividing by 0\n    // uint256 c = a / b;\n    // assert(a == b * c + a % b); // There is no case in which this doesn't hold\n    return a / b;\n  }\n\n  /**\n  * @dev Subtracts two numbers, throws on overflow (i.e. if subtrahend is greater than minuend).\n  */\n  function sub(uint256 a, uint256 b) internal pure returns (uint256) {\n    assert(b <= a);\n    return a - b;\n  }\n\n  /**\n  * @dev Adds two numbers, throws on overflow.\n  */\n  function add(uint256 a, uint256 b) internal pure returns (uint256 c) {\n    c = a + b;\n    assert(c >= a);\n    return c;\n  }\n}",
  "sourcePath": "/Users/alant/Developer/etherFifa/contracts/FifaWoldCup.sol",
  "compiler": {
    "name": "solc",
    "version": "0.4.23+commit.124ca40d.Emscripten.clang"
  },
  "schemaVersion": "2.0.0",
  "updatedAt": "2018-06-13T23:51:07.890Z"
}